S01900004279676765726E41746D656761323536302E7372656321
S113000071C000008EC000008CC000008AC00000D7
S113001088C0000086C0000084C0000082C00000C8
S113002080C000007EC000007CC000007AC00000D8
S113003078C0000076C0000074C0000072C00000E8
S113004070C000006EC000006CC000006AC00000F8
S113005068C0000066C0000064C0000062C0000008
S113006060C000005EC000005CC000005AC0000018
S113007058C0000056C0000054C0000052C0000028
S113008050C000004EC000004CC000004AC0000038
S113009048C0000046C0000044C0000042C0000048
S11300A040C000003EC000003CC000003AC0000058
S11300B038C0000036C0000034C0000032C0000068
S11300C030C000002EC000002CC000002AC0000078
S11300D028C0000026C0000024C0000022C0000088
S11300E020C0000011241FBECFEFD1E2DEBFCDBF80
S11300F000E00CBF12E0A0E0B2E0EAE1F3E000E0CF
S11301000BBF02C007900D92AE30B107D9F722E0C1
S1130110AEE0B2E001C01D92A431B207E1F727D0EE
S1130120FAC06ECFCF93DF931F92CDB7DEB779D0ED
S113013080E6898341E0BE016F5F7F4F2ED041E0AE
S113014061E08BE258D040E060EE8FE054D00F9035
S1130150DF91CF91089580EE80937C0010927B0014
S113016087E880937A0081E080937E0008959ED092
S1130170B4D0F1DF65D0D6DF789480E092E090933C
S11301801102809310022FEF81EE94E02150804001
S11301909040E1F700C00000F6CFCF93DF93CDB7D6
S11301A0DEB72C970FB6F894DEBF0FBECDBF4E5FFF
S11301B092E099838A83842F90E003977CF0A62FA2
S11301C0B72FFE01339681E090E08C0F9D1F840FC2
S11301D0911D2D912193E817F907D9F7642FCE01CA
S11301E001964CD02C960FB6F894DEBF0FBECDBF4F
S11301F0DF91CF910895CF93DF9300D01F92CDB7B5
S1130200DEB795E099838A836B834C8364E0CE01E7
S1130210019634D00F900F900F900F90DF91CF91F3
S11302200895CF93DF931F92CDB7DEB780EC898317
S113023061E0CE01019622D00F90DF91CF91089515
S113024084B1876884B985B1816885B981E58CBD3D
S113025008952F98442381F0282FA62FB72FE82F35
S1130260F92F81918EBD0DB407FEFDCF8EB58D9310
S11302708E2F821B8417A8F32F9A0895CF93DF93B0
S1130280CDB7DEB72C970FB6F894DEBF0FBECDBF47
S1130290462FBE016F5F7F4FDCDF2C960FB6F894BC
S11302A0DEBF0FBECDBFDF91CF9108952FB7F89475
S11302B06B9A82E8809390008AE18093910080E4B5
S11302C09CE9909397008093960080ED97E090933B
S11302D09900809398002FBF08951092C50087E677
S11302E08093C40088E18093C1008EE08093C200B3
S11302F00895E0ECF0E0908195FFFDCF8093C60077
S113030080E008958091C00088231CF48091C60089
S10D031008958FEF0895F894FFCFCD
S111031A0000000300000000790182010000D1
S9030000FC
