S01900004279676765726E41746D656761323536302E7372656321
S113000071C000008EC000008CC000008AC00000D7
S113001088C0000086C0000084C0000082C00000C8
S113002080C000007EC000007CC000007AC00000D8
S113003078C0000076C0000074C0000072C00000E8
S113004070C000006EC000006CC000006AC00000F8
S113005068C0000066C0000064C0000062C0000008
S113006060C000005EC000005CC000005AC0000018
S113007058C0000056C0000054C0000052C0000028
S113008050C000004EC000004CC000004AC0000038
S113009048C0000046C0000044C0000042C0000048
S11300A040C000003EC000003CC000003AC0000058
S11300B038C0000036C0000034C0000032C0000068
S11300C030C000002EC000002CC000002AC0000078
S11300D028C0000026C0000024C0000022C0000088
S11300E020C0000011241FBECFEFD1E2DEBFCDBF80
S11300F000E00CBF12E0A0E0B2E0E4ECFBE000E0C2
S11301000BBF02C007900D92A438B107D9F722E0C3
S1130110A4E8B2E001C01D92AA38B207E1F702D008
S11301204FC56ECF34D078D0789480E092E090932D
S1130130870280938602C0E0D0E00F2EFEE0EF2E0F
S1130140F2E0FF2EF02D0EE112E00F2EF8EECF2E8E
S1130150F3E0DF2EF02DDF93CF93FF92EF928BD25B
S11301601F930F9388D227D0CE0101962296B60111
S11301705BD231D08FE19EE40197F1F700C000001B
S11301800F900F900F900F900F900F90E4CF6B9AF9
S113019082E8809390008AE18093910080E49CE956
S11301A0909397008093960080ED97E09093990048
S11301B080939800089580919400909195009F9366
S11301C08F9389E192E09F938F9355D20F900F9074
S11301D00F900F900895BC0180E090E034D120E0AE
S11301E034E244E75BE4BDD19B01AC0134D020E0B0
S11301F030E048E454E493D020E030E44CE956E4A1
S11302008ED020E030E04AEF54E425D0F0D0709353
S113021099006093980008951092C50087E6809332
S1130220C40088E18093C1008EE08093C2000895E9
S1130230E0ECF0E0908195FFFDCF8093C60080E074
S113024008958091C00088231CF48091C60008950D
S11302508FEF08955058BB27AA270ED048C139D133
S113026030F03ED120F031F49F3F11F41EF42EC142
S11302700EF4E095E7FB24C1E92F4AD180F3BA17C5
S1130280620773078407950718F071F49EF562C13D
S11302900EF4E0950B2EBA2FA02D0B01B90190019D
S11302A00C01CA01A0011124FF27591B99F0593FE1
S11302B050F4503E68F11A16F040A22F232F342F29
S11302C04427585FF3CF469537952795A795F04077
S11302D05395C9F77EF41F16BA0B620B730B840B8C
S11302E0BAF09150A1F0FF0FBB1F661F771F881F44
S11302F0C2F70EC0BA0F621F731F841F48F487959C
S113030077956795B795F7959E3F08F0B3CF93958A
S1130310880F08F09927EE0F9795879508950CD0CC
S1130320E6C0DED040F0D5D030F021F45F3F19F0C4
S1130330C7C0511110C1CAC0EBD098F39923C9F3B7
S11303405523B1F3951B550BBB27AA2762177307D7
S1130350840738F09F5F5F4F220F331F441FAA1F8B
S1130360A9F333D00E2E3AF0E0E830D0915050404B
S1130370E695001CCAF729D0FE2F27D0660F771FF9
S1130380881FBB1F261737074807AB07B0E809F0DB
S1130390BB0B802DBF01FF2793585F4F2AF09E3F70
S11303A0510568F08DC0D7C05F3FECF3983EDCF395
S11303B0869577956795B795F7959F5FC9F7880FE9
S11303C0911D9695879597F90895E1E0660F771F3B
S11303D0881FBB1F621773078407BA0720F0621BCC
S11303E0730B840BBA0BEE1F88F7E095089598D031
S11303F088F09F5790F0B92F9927B751A0F0D1F00A
S1130400660F771F881F991F1AF0BA95C9F712C093
S1130410B13081F09FD0B1E008959CC0672F782F50
S11304208827B85F39F0B93FCCF3869577956795FF
S1130430B395D9F73EF490958095709561957F4F6B
S11304408F4F9F4F0895E89409C097FB3EF4909511
S11304508095709561957F4F8F4F9F4F9923A9F099
S1130460F92F96E9BB279395F69587957795679528
S1130470B795F111F8CFFAF4BB0F11F460FF1BC06C
S11304806F5F7F4F8F4F9F4F16C0882311F096E9FF
S113049011C0772321F09EE8872F762F05C06623AD
S11304A071F096E8862F70E060E02AF09A95660F66
S11304B0771F881FDAF7880F9695879597F908951F
S11304C097F99F6780E870E060E008959FEF80EC03
S11304D0089500240A9416161706180609060895A6
S11304E000240A9412161306140605060895092E0C
S11304F00394000C11F4882352F0BB0F40F4BF2B7B
S113050011F460FF04C06F5F7F4F8F4F9F4F0895BA
S113051057FD9058440F551F59F05F3F71F04795B0
S1130520880F97FB991F61F09F3F79F08795089595
S1130530121613061406551FF2CF4695F1DF08C0B4
S1130540161617061806991FF1CF869571056105D1
S113055008940895E894BB2766277727CB0197F979
S113056008950BD0C4CFB5DF28F0BADF18F0952377
S113057009F0A6CFABCF1124EECFCADFA0F3959F2D
S1130580D1F3950F50E0551F629FF001729FBB2776
S1130590F00DB11D639FAA27F00DB11DAA1F649F22
S11305A06627B00DA11D661F829F2227B00DA11DD5
S11305B0621F739FB00DA11D621F839FA00D611D5B
S11305C0221F749F3327A00D611D231F849F600D7C
S11305D0211D822F762F6A2F11249F5750408AF0B5
S11305E0E1F088234AF0EE0FFF1FBB1F661F771F41
S11305F0881F91505040A9F79E3F510570F060CF7D
S1130600AACF5F3FECF3983EDCF386957795679528
S1130610B795F795E7959F5FC1F7FE2B880F911D5E
S11306209695879597F9089597FB072E16F40094ED
S113063006D077FD08D00BD007FC05D03EF490958A
S113064081959F4F0895709561957F4F0895AA1BDA
S1130650BB1B51E107C0AA1FBB1FA617B70710F0A9
S1130660A61BB70B881F991F5A95A9F780959095DB
S1130670BC01CD010895CF93DF93CDB7DEB7FE0162
S1130680369661917191AF018091860290918702B3
S113069003D0DF91CF9108952F923F924F925F92B2
S11306A06F927F928F929F92AF92BF92CF92DF927E
S11306B0EF92FF920F931F93CF93DF93CDB7DEB7E3
S11306C02C970FB6F894DEBF0FBECDBF7C016B0133
S11306D08A01FC0117821682838181FFB0C1CE0199
S11306E001964C01F7019381F60193FD859193FFE7
S11306F081916F01882309F49EC1853239F493FDF9
S1130700859193FF81916F01853221F4B70190E0C7
S1130710C7D1E8CF512C312C20E02032A0F48B3209
S113072069F030F4803259F0833269F420612CC0CE
S11307308D3239F0803339F4216026C02260246080
S113074023C0286021C027FD27C030ED380F3A3080
S113075078F426FF06C0FAE05F9E300D1124532E74
S113076013C08AE0389E300D1124332E20620CC051
S11307708E3221F426FD5FC1206406C08C3611F44C
S1130780206802C0883641F4F60193FD859193FFF9
S113079081916F018111C1CF982F9F7D9554933022
S11307A028F40C5F1F4FFFE3F9830DC0833631F04B
S11307B0833771F0833509F057C021C0F801808177
S11307C089830E5F1F4F44244394512C540114C059
S11307D03801F2E06F0E711CF801A080B18026FF91
S11307E003C0652D70E002C06FEF7FEFC5012C8759
S11307F04CD12C0183012C852F77222E16C0380171
S1130800F2E06F0E711CF801A080B18026FF03C0D6
S1130810652D70E002C06FEF7FEFC5012C872AD1F0
S11308202C012C852068222E830123FC19C0832DE2
S113083090E048165906A0F4B70180E290E030D168
S11308403A94F5CFF50127FC859127FE81915F014C
S1130850B70190E025D131103A94F1E04F1A5108D4
S11308604114510479F7DEC0843611F0893631F52C
S1130870F80127FF07C060817181828193810C5F39
S11308801F4F08C060817181882777FD8095982F5C
S11308900E5F1F4F2F76B22E97FF09C0909580955B
S11308A0709561957F4F8F4F9F4F2068B22E2AE03D
S11308B030E0A40127D1A82EA81843C0853729F415
S11308C02F7EB22E2AE030E025C0F22FF97FBF2E12
S11308D08F36C1F018F4883579F0ADC0803719F03F
S11308E0883721F0A8C02F2F2061B22EB4FE0DC08E
S11308F08B2D8460B82E09C024FF0AC09F2F9660F8
S1130900B92E06C028E030E005C020E130E002C086
S113091020E132E0F801B7FE07C060817181828175
S113092093810C5F1F4F06C06081718180E090E06D
S11309300E5F1F4FA401E6D0A82EA818FB2DFF7749
S1130940BF2EB6FE0BC02B2D2E7FA51450F4B4FE83
S11309500AC0B2FC08C02B2D2E7E05C07A2C2B2D8C
S113096003C07A2C01C0752C24FF0DC0FE01EA0DD2
S1130970F11D8081803311F4297E09C022FF06C055
S11309807394739404C0822F867809F0739423FDC2
S113099012C020FF06C05A2C731418F4530C5718B5
S11309A0732C731460F4B70180E290E02C8778D044
S11309B073942C85F6CF731410F4371801C0312CBE
S11309C024FF11C0B70180E390E02C8769D02C8507
S11309D022FF16C021FF03C088E590E002C088E72B
S11309E090E0B7010CC0822F867851F021FD02C03F
S11309F080E201C08BE227FD8DE2B70190E050D088
S1130A00A51430F4B70180E390E04AD05A94F8CFAB
S1130A10AA94F401EA0DF11D8081B70190E040D061
S1130A20A110F6CF332009F45DCEB70180E290E047
S1130A3037D03A94F7CFF7018681978102C08FEFC0
S1130A409FEF2C960FB6F894DEBF0FBECDBFDF919B
S1130A50CF911F910F91FF90EF90DF90CF90BF90B7
S1130A60AF909F908F907F906F905F904F903F904A
S1130A702F900895FC010590615070400110D8F743
S1130A80809590958E0F9F1F0895FC0161507040D2
S1130A9001900110D8F7809590958E0F9F1F0895AF
S1130AA00F931F93CF93DF93182F092FEB018B81A3
S1130AB081FD03C08FEF9FEF20C082FF10C04E81E5
S1130AC05F812C813D81421753077CF4E881F981D1
S1130AD09F012F5F3F4F39832883108306C0E88529
S1130AE0F985812F1995892B29F72E813F812F5F55
S1130AF03F4F3F832E83812F902FDF91CF911F9102
S1130B000F910895FA01AA27283051F1203181F17B
S1130B10E8946F936E7F6E5F7F4F8F4F9F4FAF4F01
S1130B20B1E03ED0B4E03CD0670F781F891F9A1F14
S1130B30A11D680F791F8A1F911DA11D6A0F711DC8
S1130B40811D911DA11D20D009F468943F912AE0D4
S1130B50269F11243019305D3193DEF6CF010895BC
S1130B60462F4770405D4193B3E00FD0C9F7F6CFED
S1130B70462F4F70405D4A3318F0495D31FD4052B5
S1130B80419302D0A9F7EACFB4E0A695979587954B
S1130B9077956795BA95C9F700976105710508952A
S1130BA09B01AC010A2E06945795479537952795D6
S1130BB0BA95C9F7620F731F841F951FA01D08956E
S1070BC0F894FFCFD3
S1130BC40000000300000000180121010000486532
S1130BD46920416B73656C212025690A0D002B2D56
S1130BE42D2D2D2D2D2D2D2D2D2B0A0D7C2020204A
S1130BF4202020202020207C0A0D7C202F5C202013
S1130C0420202F5C207C0A0D7C205C2F20202020B7
S1130C145C2F207C0A0D7C202020202020202020F2
S1130C24207C0A0D7C20205B2D3D2D3D2D5D207CF8
S1130C340A0D2B2D2D2D2D2D2D2D2D2D2D2B0A0A69
S1070C440A0A0D0087
S9030000FC
