S01900004279676765726E41746D656761323536302E7372656321
S113000071C000008EC000008CC000008AC00000D7
S113001088C0000086C0000084C0000082C00000C8
S113002080C000007EC000007CC000007AC00000D8
S113003078C0000076C0000074C0000072C00000E8
S113004070C000006EC000006CC000006AC00000F8
S113005068C0000066C0000064C0000062C0000008
S113006060C000005EC000005CC000005AC0000018
S113007058C0000056C0000054C0000052C0000028
S113008050C000004EC000004CC000004AC0000038
S113009048C0000046C0000044C0000042C0000048
S11300A040C000003EC000003CC000003AC0000058
S11300B038C0000036C0000034C0000032C0000068
S11300C030C000002EC000002CC000002AC0000078
S11300D028C0000026C0000024C0000022C0000088
S11300E020C0000011241FBECFEFD1E2DEBFCDBF80
S11300F000E00CBF12E0A0E0B2E0E8E0FBE000E0CA
S11301000BBF02C007900D92A03DB107D9F722E0C2
S1130110A0EDB2E001C01D92A63DB207E1F72DD1DA
S1130120F1C46ECFCF93DF931F92CDB7DEB7DFD18B
S113013080E6898341E0BE016F5F7F4F85D141E056
S113014061E08BE2BED140E060EE8FE0BAD10F9067
S1130150DF91CF910895CF92DF92EF92FF920F93A8
S11301601F93CF93DF9300D01F921F92CDB7DEB7BA
S11301707C016D836A0141E0BE016F5F7F4F80E3C4
S113018029D10CE010E014C041E0BE016F5F7F4F45
S113019080E320D1015011090115110549F483E1CF
S11301A092E09F938F9309D20F900F908FEF2FC0FF
S11301B0898183FDE9CFBE016E5F7F4FC601880F41
S11301C0991F82959295907F9827807F9827F1D1E7
S11301D042E0BE016E5F7F4F81E336D141E0BE0154
S11301E06B5F7F4F85E330D14D81B70186E32CD11E
S11301F081E058D18FE891E00197F1F700C0000049
S113020041E0BE016C5F7F4F80E3E4D08C810F90AE
S11302100F900F900F900F90DF91CF911F910F913E
S1130220FF90EF90DF90CF900895CF92DF92EF92FE
S1130230FF920F931F93CF93DF931F921F92CDB71B
S1130240DEB76C017B018A0142E0BE016F5F7F4F24
S113025081E6C0D02A81229526952770898190E075
S1130260880F991F880F991F880F991F822BF601F9
S11302709183808341E0B80185E6ACD0F8014081E8
S11302804F704083B70186E6A5D040E061E08CE280
S113029018D10F900F90DF91CF911F910F91FF9084
S11302A0EF90DF90CF9008958F929F92AF92BF927C
S11302B0CF92DF92EF92FF920F931F93CF93DF932E
S11302C0CDB7DEB760970FB6F894DEBF0FBECDBFD3
S11302D085E0EEE0F2E0DE01119601900D928A9540
S11302E0E1F78E010F5F1F4F4E0185E0880E911CD0
S11302F00F2EFAE0AF2EB12CF02D0F2EF0E4EF2EDE
S1130300F2E0FF2EF02DBF86AE86680141E050E09A
S113031062E0C80120DF188AAE01405F5F4FBE0172
S11303206A5F7F4FCE010E9680DF0F5F1F4F8E8175
S11303301F928F93F60180811F928F93FF92EF9209
S11303403CD10F900F900F900F900F900F900815C5
S11303501905C9F660960FB6F894DEBF0FBECDBF7F
S1130360DF91CF911F910F91FF90EF90DF90CF908D
S1130370BF90AF909F908F900895FDD0C7D0D2DEEC
S113038080E092E09093D3028093D20280E090E0E8
S11303900AE512E0CAE6D2E07C012FEFE21AF20A83
S11303A09F938F931F930F9308D1DF93CF9305D11E
S11303B07BDF2FEF89E698E1215080409040E1F700
S11303C000C000000F900F900F900F900F900F90AF
S11303D0C701E2CFFF920F931F93CF93DF93CDB763
S11303E0DEB768970FB6F894DEBF0FBECDBFF62E0A
S11303F0072F12E0140F93E099838A83412FBE01E3
S1130400635F7F4FCE01019689D0812F90E00397DF
S11304107CF0FE013F96AF2DB02F8DE090E08C0F65
S11304209D1F810F911D21912D93E817F907D9F78D
S113043068960FB6F894DEBF0FBECDBFDF91CF91A3
S11304401F910F91FF900895CF93DF93CDB7DEB73F
S11304502C970FB6F894DEBF0FBECDBF4E5F92E06F
S113046099838A83842F90E003977CF0A62FB72F7B
S1130470FE01339681E090E08C0F9D1F840F911D47
S11304802D912193E817F907D9F7642FCE0101962E
S11304905AD02C960FB6F894DEBF0FBECDBFDF91B5
S11304A0CF910895CF93DF931F92CDB7DEB78068C5
S11304B0898361E0CE01019646D00F90DF91CF9100
S11304C00895CF93DF9300D01F92CDB7DEB795E0A8
S11304D099838A836B834C8364E0CE01019633D085
S11304E00F900F900F900F90DF91CF910895CF93BD
S11304F0DF931F92CDB7DEB780EC898361E0CE0134
S1130500019621D00F90DF91CF91089587E884B9A7
S113051085B1816885B981E58CBD08952F98442300
S113052081F0282FA62FB72FE82FF92F81918EBDA8
S11305300DB407FEFDCF8EB58D938E2F821B8417CD
S1130540A8F32F9A0895CF93DF93CDB7DEB72C97F6
S11305500FB6F894DEBF0FBECDBF462FBE016F5F4E
S11305607F4FDCDF2C960FB6F894DEBF0FBECDBFF5
S1130570DF91CF9108951092C50087E68093C4005F
S113058088E18093C1008EE08093C2000895E0EC7E
S1130590F0E0908195FFFDCF8093C60080E0089540
S11305A08091C00088231CF48091C60008958FEFC9
S11305B00895FB01908381830895CF93DF93CDB792
S11305C0DEB7FE01369661917191AF018091D2023E
S11305D09091D30203D0DF91CF9108952F923F924F
S11305E04F925F926F927F928F929F92AF92BF923F
S11305F0CF92DF92EF92FF920F931F93CF93DF93EB
S1130600CDB7DEB72C970FB6F894DEBF0FBECDBFC3
S11306107C016B018A01FC0117821682838181FFB0
S1130620B0C1CE0101964C01F7019381F60193FD0F
S1130630859193FF81916F01882309F49EC18532CE
S113064039F493FD859193FF81916F01853221F4F3
S1130650B70190E0C7D1E8CF512C312C20E02032F3
S1130660A0F48B3269F030F4803259F0833269F4AB
S113067020612CC08D3239F0803339F4216026C0DA
S11306802260246023C0286021C027FD27C030EDEC
S1130690380F3A3078F426FF06C0FAE05F9E300D3A
S11306A01124532E13C08AE0389E300D1124332EAA
S11306B020620CC08E3221F426FD5FC1206406C086
S11306C08C3611F4206802C0883641F4F60193FD9B
S11306D0859193FF81916F018111C1CF982F9F7DE7
S11306E09554933028F40C5F1F4FFFE3F9830DC03A
S11306F0833631F0833771F0833509F057C021C058
S1130700F801808189830E5F1F4F44244394512C48
S1130710540114C03801F2E06F0E711CF801A0807E
S1130720B18026FF03C0652D70E002C06FEF7FEF3C
S1130730C5012C874CD12C0183012C852F77222EC7
S113074016C03801F2E06F0E711CF801A080B18070
S113075026FF03C0652D70E002C06FEF7FEFC50177
S11307602C872AD12C012C852068222E830123FC7E
S113077019C0832D90E048165906A0F4B70180E211
S113078090E030D13A94F5CFF50127FC859127FE0E
S113079081915F01B70190E025D131103A94F1E0E5
S11307A04F1A51084114510479F7DEC0843611F010
S11307B0893631F5F80127FF07C060817181828194
S11307C093810C5F1F4F08C060817181882777FD7A
S11307D08095982F0E5F1F4F2F76B22E97FF09C07A
S11307E090958095709561957F4F8F4F9F4F2068AE
S11307F0B22E2AE030E0A40127D1A82EA81843C0C5
S1130800853729F42F7EB22E2AE030E025C0F22F5E
S1130810F97FBF2E8F36C1F018F4883579F0ADC05A
S1130820803719F0883721F0A8C02F2F2061B22E0D
S1130830B4FE0DC08B2D8460B82E09C024FF0AC0FD
S11308409F2F9660B92E06C028E030E005C020E155
S113085030E002C020E132E0F801B7FE07C0608159
S11308607181828193810C5F1F4F06C06081718109
S113087080E090E00E5F1F4FA401E6D0A82EA818D8
S1130880FB2DFF77BF2EB6FE0BC02B2D2E7FA5149C
S113089050F4B4FE0AC0B2FC08C02B2D2E7E05C055
S11308A07A2C2B2D03C07A2C01C0752C24FF0DC08B
S11308B0FE01EA0DF11D8081803311F4297E09C007
S11308C022FF06C07394739404C0822F867809F0C3
S11308D0739423FD12C020FF06C05A2C731418F41D
S11308E0530C5718732C731460F4B70180E290E032
S11308F02C8778D073942C85F6CF731410F43718A2
S113090001C0312C24FF11C0B70180E390E02C8793
S113091069D02C8522FF16C021FF03C088E590E032
S113092002C088E790E0B7010CC0822F867851F0AE
S113093021FD02C080E201C08BE227FD8DE2B701F8
S113094090E050D0A51430F4B70180E390E04AD091
S11309505A94F8CFAA94F401EA0DF11D8081B701ED
S113096090E040D0A110F6CF332009F45DCEB7015A
S113097080E290E037D03A94F7CFF70186819781EF
S113098002C08FEF9FEF2C960FB6F894DEBF0FBE18
S1130990CDBFDF91CF911F910F91FF90EF90DF902A
S11309A0CF90BF90AF909F908F907F906F905F900B
S11309B04F903F902F900895FC0105906150704036
S11309C00110D8F7809590958E0F9F1F0895FC0114
S11309D06150704001900110D8F7809590958E0F6A
S11309E09F1F08950F931F93CF93DF93182F092F01
S11309F0EB018B8181FD03C08FEF9FEF20C082FF4D
S1130A0010C04E815F812C813D81421753077CF4D5
S1130A10E881F9819F012F5F3F4F39832883108339
S1130A2006C0E885F985812F1995892B29F72E8130
S1130A303F812F5F3F4F3F832E83812F902FDF9184
S1130A40CF911F910F910895FA01AA27283051F1EF
S1130A50203181F1E8946F936E7F6E5F7F4F8F4FEB
S1130A609F4FAF4FB1E03ED0B4E03CD0670F781F4A
S1130A70891F9A1FA11D680F791F8A1F911DA11D2F
S1130A806A0F711D811D911DA11D20D009F4689468
S1130A903F912AE0269F11243019305D3193DEF610
S1130AA0CF010895462F4770405D4193B3E00FD0C6
S1130AB0C9F7F6CF462F4F70405D4A3318F0495DB1
S1130AC031FD4052419302D0A9F7EACFB4E0A69594
S1130AD09795879577956795BA95C9F700976105B6
S1130AE0710508959B01AC010A2E0694579547950C
S1130AF037952795BA95C9F7620F731F841F951F01
S10B0B00A01D0895F894FFCF35
S1130B080000000300000000C702D00200002C020D
S1130B18050C044552524F523A20436F756C6420B9
S1130B286E6F74206D616B6520636F6E746163749E
S1130B382077697468204D5043323531350A0D00E9
S1130B4853656E64743A2025640952656369657651
S1130B5865643A202564200D0A0048656920416BC4
S1130B6873656C212025690A0D002B2D2D2D2D2D43
S1130B782D2D2D2D2D2B0A0D7C20202020202020EA
S1130B882020207C0A0D7C202F5C202020202F5C34
S1130B98207C0A0D7C205C2F202020205C2F207CC8
S1130BA80A0D7C202020202020202020207C0A0DD3
S1130BB87C20205B2D3D2D3D2D5D207C0A0D2B2DA9
S1130BC82D2D2D2D2D2D2D2D2D2B0A0A0A0A0D0024
S9030000FC
